{
  "_format": "hh-sol-artifact-1",
  "contractName": "GroupEscrow",
  "sourceName": "contracts/GroupEscrow.sol",
  "abi": [
    {
      "inputs": [],
      "stateMutability": "nonpayable",
      "type": "constructor"
    },
    {
      "inputs": [
        {
          "internalType": "address",
          "name": "owner",
          "type": "address"
        }
      ],
      "name": "OwnableInvalidOwner",
      "type": "error"
    },
    {
      "inputs": [
        {
          "internalType": "address",
          "name": "account",
          "type": "address"
        }
      ],
      "name": "OwnableUnauthorizedAccount",
      "type": "error"
    },
    {
      "inputs": [],
      "name": "ReentrancyGuardReentrantCall",
      "type": "error"
    },
    {
      "anonymous": false,
      "inputs": [
        {
          "indexed": true,
          "internalType": "uint256",
          "name": "poolId",
          "type": "uint256"
        },
        {
          "indexed": true,
          "internalType": "address",
          "name": "contributor",
          "type": "address"
        },
        {
          "indexed": false,
          "internalType": "uint256",
          "name": "amount",
          "type": "uint256"
        },
        {
          "indexed": false,
          "internalType": "uint256",
          "name": "newTotal",
          "type": "uint256"
        }
      ],
      "name": "Contributed",
      "type": "event"
    },
    {
      "anonymous": false,
      "inputs": [
        {
          "indexed": true,
          "internalType": "address",
          "name": "previousOwner",
          "type": "address"
        },
        {
          "indexed": true,
          "internalType": "address",
          "name": "newOwner",
          "type": "address"
        }
      ],
      "name": "OwnershipTransferred",
      "type": "event"
    },
    {
      "anonymous": false,
      "inputs": [
        {
          "indexed": true,
          "internalType": "uint256",
          "name": "poolId",
          "type": "uint256"
        },
        {
          "indexed": true,
          "internalType": "address",
          "name": "creator",
          "type": "address"
        },
        {
          "indexed": false,
          "internalType": "uint256",
          "name": "totalAmount",
          "type": "uint256"
        }
      ],
      "name": "PoolCompleted",
      "type": "event"
    },
    {
      "anonymous": false,
      "inputs": [
        {
          "indexed": true,
          "internalType": "uint256",
          "name": "poolId",
          "type": "uint256"
        },
        {
          "indexed": true,
          "internalType": "address",
          "name": "creator",
          "type": "address"
        },
        {
          "indexed": false,
          "internalType": "uint256",
          "name": "target",
          "type": "uint256"
        },
        {
          "indexed": false,
          "internalType": "uint256",
          "name": "deadline",
          "type": "uint256"
        },
        {
          "indexed": false,
          "internalType": "uint8",
          "name": "maxMembers",
          "type": "uint8"
        }
      ],
      "name": "PoolCreated",
      "type": "event"
    },
    {
      "anonymous": false,
      "inputs": [
        {
          "indexed": true,
          "internalType": "uint256",
          "name": "poolId",
          "type": "uint256"
        },
        {
          "indexed": true,
          "internalType": "address",
          "name": "member",
          "type": "address"
        },
        {
          "indexed": false,
          "internalType": "uint256",
          "name": "amount",
          "type": "uint256"
        }
      ],
      "name": "Refunded",
      "type": "event"
    },
    {
      "inputs": [
        {
          "internalType": "uint256",
          "name": "poolId",
          "type": "uint256"
        }
      ],
      "name": "completePool",
      "outputs": [],
      "stateMutability": "nonpayable",
      "type": "function"
    },
    {
      "inputs": [
        {
          "internalType": "uint256",
          "name": "poolId",
          "type": "uint256"
        }
      ],
      "name": "contribute",
      "outputs": [],
      "stateMutability": "payable",
      "type": "function"
    },
    {
      "inputs": [
        {
          "internalType": "uint256",
          "name": "",
          "type": "uint256"
        },
        {
          "internalType": "address",
          "name": "",
          "type": "address"
        }
      ],
      "name": "contributions",
      "outputs": [
        {
          "internalType": "uint256",
          "name": "",
          "type": "uint256"
        }
      ],
      "stateMutability": "view",
      "type": "function"
    },
    {
      "inputs": [
        {
          "internalType": "uint256",
          "name": "target",
          "type": "uint256"
        },
        {
          "internalType": "uint256",
          "name": "deadline",
          "type": "uint256"
        },
        {
          "internalType": "uint8",
          "name": "maxMembers",
          "type": "uint8"
        }
      ],
      "name": "createPool",
      "outputs": [
        {
          "internalType": "uint256",
          "name": "poolId",
          "type": "uint256"
        }
      ],
      "stateMutability": "nonpayable",
      "type": "function"
    },
    {
      "inputs": [
        {
          "internalType": "uint256",
          "name": "poolId",
          "type": "uint256"
        },
        {
          "internalType": "address",
          "name": "user",
          "type": "address"
        }
      ],
      "name": "getContribution",
      "outputs": [
        {
          "internalType": "uint256",
          "name": "",
          "type": "uint256"
        }
      ],
      "stateMutability": "view",
      "type": "function"
    },
    {
      "inputs": [
        {
          "internalType": "uint256",
          "name": "poolId",
          "type": "uint256"
        }
      ],
      "name": "getPool",
      "outputs": [
        {
          "internalType": "address",
          "name": "creator",
          "type": "address"
        },
        {
          "internalType": "uint256",
          "name": "target",
          "type": "uint256"
        },
        {
          "internalType": "uint256",
          "name": "deadline",
          "type": "uint256"
        },
        {
          "internalType": "uint256",
          "name": "totalFunded",
          "type": "uint256"
        },
        {
          "internalType": "uint8",
          "name": "maxMembers",
          "type": "uint8"
        },
        {
          "internalType": "uint8",
          "name": "memberCount",
          "type": "uint8"
        },
        {
          "internalType": "bool",
          "name": "completed",
          "type": "bool"
        }
      ],
      "stateMutability": "view",
      "type": "function"
    },
    {
      "inputs": [
        {
          "internalType": "uint256",
          "name": "",
          "type": "uint256"
        },
        {
          "internalType": "address",
          "name": "",
          "type": "address"
        }
      ],
      "name": "isMember",
      "outputs": [
        {
          "internalType": "bool",
          "name": "",
          "type": "bool"
        }
      ],
      "stateMutability": "view",
      "type": "function"
    },
    {
      "inputs": [
        {
          "internalType": "uint256",
          "name": "poolId",
          "type": "uint256"
        },
        {
          "internalType": "address",
          "name": "user",
          "type": "address"
        }
      ],
      "name": "isPoolMember",
      "outputs": [
        {
          "internalType": "bool",
          "name": "",
          "type": "bool"
        }
      ],
      "stateMutability": "view",
      "type": "function"
    },
    {
      "inputs": [],
      "name": "nextPoolId",
      "outputs": [
        {
          "internalType": "uint256",
          "name": "",
          "type": "uint256"
        }
      ],
      "stateMutability": "view",
      "type": "function"
    },
    {
      "inputs": [],
      "name": "owner",
      "outputs": [
        {
          "internalType": "address",
          "name": "",
          "type": "address"
        }
      ],
      "stateMutability": "view",
      "type": "function"
    },
    {
      "inputs": [
        {
          "internalType": "uint256",
          "name": "",
          "type": "uint256"
        }
      ],
      "name": "pools",
      "outputs": [
        {
          "internalType": "address",
          "name": "creator",
          "type": "address"
        },
        {
          "internalType": "uint256",
          "name": "target",
          "type": "uint256"
        },
        {
          "internalType": "uint256",
          "name": "deadline",
          "type": "uint256"
        },
        {
          "internalType": "uint256",
          "name": "totalFunded",
          "type": "uint256"
        },
        {
          "internalType": "uint8",
          "name": "maxMembers",
          "type": "uint8"
        },
        {
          "internalType": "uint8",
          "name": "memberCount",
          "type": "uint8"
        },
        {
          "internalType": "bool",
          "name": "completed",
          "type": "bool"
        }
      ],
      "stateMutability": "view",
      "type": "function"
    },
    {
      "inputs": [
        {
          "internalType": "uint256",
          "name": "poolId",
          "type": "uint256"
        }
      ],
      "name": "refund",
      "outputs": [],
      "stateMutability": "nonpayable",
      "type": "function"
    },
    {
      "inputs": [],
      "name": "renounceOwnership",
      "outputs": [],
      "stateMutability": "nonpayable",
      "type": "function"
    },
    {
      "inputs": [
        {
          "internalType": "address",
          "name": "newOwner",
          "type": "address"
        }
      ],
      "name": "transferOwnership",
      "outputs": [],
      "stateMutability": "nonpayable",
      "type": "function"
    }
  ],
  "bytecode": "0x608060405260018055348015610013575f80fd5b5060017f9b779b17422d0df92223018b32b4d1fa46e071723d6817e2486d003becc55f0055338061005d57604051631e4fbdf760e01b81525f600482015260240160405180910390fd5b6100668161006c565b506100bb565b5f80546001600160a01b038381166001600160a01b0319831681178455604051919092169283917f8be0079c531659141344cd1fd0a4f28419497f9722a3daafe3b4186f6b6457e09190a35050565b610f56806100c85f395ff3fe6080604052600436106100d9575f3560e01c806385b6b4de1161007c578063ac4afa3811610057578063ac4afa38146102ec578063c1cbbca714610354578063e081dbf914610367578063f2fde38b146103a8575f80fd5b806385b6b4de146102885780638da5cb5b146102a757806392dbf3a7146102cd575f80fd5b8063278ecde1116100b7578063278ecde1146101e45780633d891f5914610205578063715018a61461023b5780637d9e10f51461024f575f80fd5b80630506610e146100dd578063068bcd8d1461011157806318e56131146101c1575b5f80fd5b3480156100e8575f80fd5b506100fc6100f7366004610dc2565b6103c7565b60405190151581526020015b60405180910390f35b34801561011c575f80fd5b5061017a61012b366004610dec565b5f908152600260208190526040909120805460018201549282015460038301546004909301546001600160a01b039092169490929160ff80821692610100830482169262010000900490911690565b604080516001600160a01b039098168852602088019690965294860193909352606085019190915260ff90811660808501521660a0830152151560c082015260e001610108565b3480156101cc575f80fd5b506101d660015481565b604051908152602001610108565b3480156101ef575f80fd5b506102036101fe366004610dec565b6103f3565b005b348015610210575f80fd5b506101d661021f366004610dc2565b600360209081525f928352604080842090915290825290205481565b348015610246575f80fd5b50610203610608565b34801561025a575f80fd5b506100fc610269366004610dc2565b600460209081525f928352604080842090915290825290205460ff1681565b348015610293575f80fd5b506101d66102a2366004610e03565b61061b565b3480156102b2575f80fd5b505f546040516001600160a01b039091168152602001610108565b3480156102d8575f80fd5b506102036102e7366004610dec565b61083b565b3480156102f7575f80fd5b5061017a610306366004610dec565b600260208190525f9182526040909120805460018201549282015460038301546004909301546001600160a01b039092169392909160ff808216916101008104821691620100009091041687565b610203610362366004610dec565b610a12565b348015610372575f80fd5b506101d6610381366004610dc2565b5f9182526003602090815260408084206001600160a01b0393909316845291905290205490565b3480156103b3575f80fd5b506102036103c2366004610e3e565b610ca8565b5f8281526004602090815260408083206001600160a01b038516845290915290205460ff165b92915050565b6103fb610ce2565b5f818152600260205260409020600481015462010000900460ff161561043c5760405162461bcd60e51b815260040161043390610e5e565b60405180910390fd5b8060020154421161048f5760405162461bcd60e51b815260206004820152601b60248201527f457363726f773a20646561646c696e65206e6f742070617373656400000000006044820152606401610433565b5f828152600360209081526040808320338452909152902054806104f55760405162461bcd60e51b815260206004820152601960248201527f457363726f773a206e6f7468696e6720746f20726566756e64000000000000006044820152606401610433565b5f838152600360208181526040808420338552909152822082905583018054839290610522908490610ea9565b90915550506040515f90339083908381818185875af1925050503d805f8114610566576040519150601f19603f3d011682016040523d82523d5f602084013e61056b565b606091505b50509050806105b45760405162461bcd60e51b8152602060048201526015602482015274115cd8dc9bddce881c99599d5b990819985a5b1959605a1b6044820152606401610433565b604051828152339085907f7ca5472b7ea78c2c0141c5a12ee6d170cf4ce8ed06be3d22c8252ddfc7a6a2c4906020015b60405180910390a350505061060560015f80516020610f0183398151915255565b50565b610610610cfd565b6106195f610d29565b565b5f8084116106615760405162461bcd60e51b8152602060048201526013602482015272115cd8dc9bddce881e995c9bc81d185c99d95d606a1b6044820152606401610433565b4283116106b05760405162461bcd60e51b815260206004820152601860248201527f457363726f773a20646561646c696e6520696e207061737400000000000000006044820152606401610433565b60028260ff16101580156106c8575060328260ff1611155b61070b5760405162461bcd60e51b81526020600482015260146024820152730457363726f773a206d656d6265727320322d35360641b6044820152606401610433565b60018054905f61071a83610ebc565b909155506040805160e0810182523380825260208083018981528385018981525f606080870182815260ff8c811660808a01818152600160a08c0181815260c08d018881528f89526002808d528f8a209e518f546001600160a01b039091166001600160a01b0319909116178f559a518e8401559851998d0199909955935160038c01555160049a8b018054985197511515620100000262ff0000199885166101000261ffff19909a1692909416919091179790971795909516179094559584528681208582528452869020805460ff191690921790915584518a81529182018990529381019390935292935083917f320b398d5e0d3b0b954438d0ed2cbf9de6dd38956fbe39447d7b210fe4bb5cb5910160405180910390a39392505050565b610843610ce2565b5f81815260026020526040902080546001600160a01b0316331461089f5760405162461bcd60e51b815260206004820152601360248201527222b9b1b937bb9d103737ba1031b932b0ba37b960691b6044820152606401610433565b600481015462010000900460ff16156108ca5760405162461bcd60e51b815260040161043390610e5e565b80600101548160030154101561091b5760405162461bcd60e51b8152602060048201526016602482015275115cd8dc9bddce881d185c99d95d081b9bdd081b595d60521b6044820152606401610433565b60048101805462ff0000191662010000179055600381015481546040515f916001600160a01b03169083908381818185875af1925050503d805f811461097c576040519150601f19603f3d011682016040523d82523d5f602084013e610981565b606091505b50509050806109d25760405162461bcd60e51b815260206004820152601760248201527f457363726f773a207472616e73666572206661696c65640000000000000000006044820152606401610433565b82546040518381526001600160a01b039091169085907f6bf55e50a9fc5abbb8be18150d74ce63cd6fbeb8b7949b6c2a647e96724af3ec906020016105e4565b610a1a610ce2565b5f81815260026020526040902080546001600160a01b0316610a775760405162461bcd60e51b8152602060048201526016602482015275115cd8dc9bddce881c1bdbdb081b9bdd08199bdd5b9960521b6044820152606401610433565b600481015462010000900460ff1615610aa25760405162461bcd60e51b815260040161043390610e5e565b8060020154421115610af65760405162461bcd60e51b815260206004820152601760248201527f457363726f773a20646561646c696e65207061737365640000000000000000006044820152606401610433565b5f3411610b3b5760405162461bcd60e51b8152602060048201526013602482015272115cd8dc9bddce881e995c9bc8185b5bdd5b9d606a1b6044820152606401610433565b5f82815260046020908152604080832033845290915290205460ff16610c0757600481015460ff8082166101009092041610610bad5760405162461bcd60e51b8152602060048201526011602482015270115cd8dc9bddce881c1bdbdb08199d5b1b607a1b6044820152606401610433565b5f828152600460208181526040808420338552909152909120805460ff1916600190811790915590820180548290610bee908290610100900460ff16610ed4565b92506101000a81548160ff021916908360ff1602179055505b5f82815260036020908152604080832033845290915281208054349290610c2f908490610eed565b9250508190555034816003015f828254610c499190610eed565b90915550506003810154604080513481526020810192909252339184917fdcfa71ee125a676f843733d9d39dce2c918ecf9e92f96db4f24bdb5244ed68a0910160405180910390a35061060560015f80516020610f0183398151915255565b610cb0610cfd565b6001600160a01b038116610cd957604051631e4fbdf760e01b81525f6004820152602401610433565b61060581610d29565b610cea610d78565b60025f80516020610f0183398151915255565b5f546001600160a01b031633146106195760405163118cdaa760e01b8152336004820152602401610433565b5f80546001600160a01b038381166001600160a01b0319831681178455604051919092169283917f8be0079c531659141344cd1fd0a4f28419497f9722a3daafe3b4186f6b6457e09190a35050565b5f80516020610f018339815191525460020361061957604051633ee5aeb560e01b815260040160405180910390fd5b80356001600160a01b0381168114610dbd575f80fd5b919050565b5f8060408385031215610dd3575f80fd5b82359150610de360208401610da7565b90509250929050565b5f60208284031215610dfc575f80fd5b5035919050565b5f805f60608486031215610e15575f80fd5b8335925060208401359150604084013560ff81168114610e33575f80fd5b809150509250925092565b5f60208284031215610e4e575f80fd5b610e5782610da7565b9392505050565b60208082526019908201527f457363726f773a20616c726561647920636f6d706c6574656400000000000000604082015260600190565b634e487b7160e01b5f52601160045260245ffd5b818103818111156103ed576103ed610e95565b5f60018201610ecd57610ecd610e95565b5060010190565b60ff81811683821601908111156103ed576103ed610e95565b808201808211156103ed576103ed610e9556fe9b779b17422d0df92223018b32b4d1fa46e071723d6817e2486d003becc55f00a26469706673582212205285c936be5b026fbb97ef85dec5ac81991321f90aff75f9358ff88f7ef2c9d064736f6c63430008180033",
  "linkReferences": {},
  "deployedLinkReferences": {}
}