{
  "_format": "hh-sol-artifact-1",
  "contractName": "GoalBadgeSBT",
  "sourceName": "contracts/GoalBadgeSBT.sol",
  "abi": [
    {
      "inputs": [],
      "stateMutability": "nonpayable",
      "type": "constructor"
    },
    {
      "inputs": [
        {
          "internalType": "address",
          "name": "sender",
          "type": "address"
        },
        {
          "internalType": "uint256",
          "name": "tokenId",
          "type": "uint256"
        },
        {
          "internalType": "address",
          "name": "owner",
          "type": "address"
        }
      ],
      "name": "ERC721IncorrectOwner",
      "type": "error"
    },
    {
      "inputs": [
        {
          "internalType": "address",
          "name": "operator",
          "type": "address"
        },
        {
          "internalType": "uint256",
          "name": "tokenId",
          "type": "uint256"
        }
      ],
      "name": "ERC721InsufficientApproval",
      "type": "error"
    },
    {
      "inputs": [
        {
          "internalType": "address",
          "name": "approver",
          "type": "address"
        }
      ],
      "name": "ERC721InvalidApprover",
      "type": "error"
    },
    {
      "inputs": [
        {
          "internalType": "address",
          "name": "operator",
          "type": "address"
        }
      ],
      "name": "ERC721InvalidOperator",
      "type": "error"
    },
    {
      "inputs": [
        {
          "internalType": "address",
          "name": "owner",
          "type": "address"
        }
      ],
      "name": "ERC721InvalidOwner",
      "type": "error"
    },
    {
      "inputs": [
        {
          "internalType": "address",
          "name": "receiver",
          "type": "address"
        }
      ],
      "name": "ERC721InvalidReceiver",
      "type": "error"
    },
    {
      "inputs": [
        {
          "internalType": "address",
          "name": "sender",
          "type": "address"
        }
      ],
      "name": "ERC721InvalidSender",
      "type": "error"
    },
    {
      "inputs": [
        {
          "internalType": "uint256",
          "name": "tokenId",
          "type": "uint256"
        }
      ],
      "name": "ERC721NonexistentToken",
      "type": "error"
    },
    {
      "inputs": [
        {
          "internalType": "address",
          "name": "owner",
          "type": "address"
        }
      ],
      "name": "OwnableInvalidOwner",
      "type": "error"
    },
    {
      "inputs": [
        {
          "internalType": "address",
          "name": "account",
          "type": "address"
        }
      ],
      "name": "OwnableUnauthorizedAccount",
      "type": "error"
    },
    {
      "anonymous": false,
      "inputs": [
        {
          "indexed": true,
          "internalType": "address",
          "name": "owner",
          "type": "address"
        },
        {
          "indexed": true,
          "internalType": "address",
          "name": "approved",
          "type": "address"
        },
        {
          "indexed": true,
          "internalType": "uint256",
          "name": "tokenId",
          "type": "uint256"
        }
      ],
      "name": "Approval",
      "type": "event"
    },
    {
      "anonymous": false,
      "inputs": [
        {
          "indexed": true,
          "internalType": "address",
          "name": "owner",
          "type": "address"
        },
        {
          "indexed": true,
          "internalType": "address",
          "name": "operator",
          "type": "address"
        },
        {
          "indexed": false,
          "internalType": "bool",
          "name": "approved",
          "type": "bool"
        }
      ],
      "name": "ApprovalForAll",
      "type": "event"
    },
    {
      "anonymous": false,
      "inputs": [
        {
          "indexed": true,
          "internalType": "address",
          "name": "recipient",
          "type": "address"
        },
        {
          "indexed": true,
          "internalType": "uint256",
          "name": "tokenId",
          "type": "uint256"
        },
        {
          "indexed": false,
          "internalType": "string",
          "name": "goalTitle",
          "type": "string"
        }
      ],
      "name": "BadgeMinted",
      "type": "event"
    },
    {
      "anonymous": false,
      "inputs": [
        {
          "indexed": false,
          "internalType": "uint256",
          "name": "_fromTokenId",
          "type": "uint256"
        },
        {
          "indexed": false,
          "internalType": "uint256",
          "name": "_toTokenId",
          "type": "uint256"
        }
      ],
      "name": "BatchMetadataUpdate",
      "type": "event"
    },
    {
      "anonymous": false,
      "inputs": [
        {
          "indexed": false,
          "internalType": "uint256",
          "name": "_tokenId",
          "type": "uint256"
        }
      ],
      "name": "MetadataUpdate",
      "type": "event"
    },
    {
      "anonymous": false,
      "inputs": [
        {
          "indexed": true,
          "internalType": "address",
          "name": "previousOwner",
          "type": "address"
        },
        {
          "indexed": true,
          "internalType": "address",
          "name": "newOwner",
          "type": "address"
        }
      ],
      "name": "OwnershipTransferred",
      "type": "event"
    },
    {
      "anonymous": false,
      "inputs": [
        {
          "indexed": true,
          "internalType": "address",
          "name": "from",
          "type": "address"
        },
        {
          "indexed": true,
          "internalType": "address",
          "name": "to",
          "type": "address"
        },
        {
          "indexed": true,
          "internalType": "uint256",
          "name": "tokenId",
          "type": "uint256"
        }
      ],
      "name": "Transfer",
      "type": "event"
    },
    {
      "anonymous": false,
      "inputs": [
        {
          "indexed": true,
          "internalType": "address",
          "name": "verifier",
          "type": "address"
        },
        {
          "indexed": false,
          "internalType": "bool",
          "name": "allowed",
          "type": "bool"
        }
      ],
      "name": "VerifierUpdated",
      "type": "event"
    },
    {
      "inputs": [
        {
          "internalType": "address",
          "name": "to",
          "type": "address"
        },
        {
          "internalType": "uint256",
          "name": "tokenId",
          "type": "uint256"
        }
      ],
      "name": "approve",
      "outputs": [],
      "stateMutability": "nonpayable",
      "type": "function"
    },
    {
      "inputs": [
        {
          "internalType": "address",
          "name": "owner",
          "type": "address"
        }
      ],
      "name": "balanceOf",
      "outputs": [
        {
          "internalType": "uint256",
          "name": "",
          "type": "uint256"
        }
      ],
      "stateMutability": "view",
      "type": "function"
    },
    {
      "inputs": [
        {
          "internalType": "address[]",
          "name": "recipients",
          "type": "address[]"
        },
        {
          "internalType": "string",
          "name": "goalTitle",
          "type": "string"
        },
        {
          "internalType": "string",
          "name": "tokenUri",
          "type": "string"
        }
      ],
      "name": "batchMintBadge",
      "outputs": [
        {
          "internalType": "uint256[]",
          "name": "tokenIds",
          "type": "uint256[]"
        }
      ],
      "stateMutability": "nonpayable",
      "type": "function"
    },
    {
      "inputs": [
        {
          "internalType": "uint256",
          "name": "tokenId",
          "type": "uint256"
        }
      ],
      "name": "getApproved",
      "outputs": [
        {
          "internalType": "address",
          "name": "",
          "type": "address"
        }
      ],
      "stateMutability": "view",
      "type": "function"
    },
    {
      "inputs": [
        {
          "internalType": "address",
          "name": "owner",
          "type": "address"
        },
        {
          "internalType": "address",
          "name": "operator",
          "type": "address"
        }
      ],
      "name": "isApprovedForAll",
      "outputs": [
        {
          "internalType": "bool",
          "name": "",
          "type": "bool"
        }
      ],
      "stateMutability": "view",
      "type": "function"
    },
    {
      "inputs": [
        {
          "internalType": "address",
          "name": "recipient",
          "type": "address"
        },
        {
          "internalType": "string",
          "name": "goalTitle",
          "type": "string"
        },
        {
          "internalType": "string",
          "name": "tokenUri",
          "type": "string"
        }
      ],
      "name": "mintBadge",
      "outputs": [
        {
          "internalType": "uint256",
          "name": "tokenId",
          "type": "uint256"
        }
      ],
      "stateMutability": "nonpayable",
      "type": "function"
    },
    {
      "inputs": [],
      "name": "name",
      "outputs": [
        {
          "internalType": "string",
          "name": "",
          "type": "string"
        }
      ],
      "stateMutability": "view",
      "type": "function"
    },
    {
      "inputs": [],
      "name": "nextTokenId",
      "outputs": [
        {
          "internalType": "uint256",
          "name": "",
          "type": "uint256"
        }
      ],
      "stateMutability": "view",
      "type": "function"
    },
    {
      "inputs": [],
      "name": "owner",
      "outputs": [
        {
          "internalType": "address",
          "name": "",
          "type": "address"
        }
      ],
      "stateMutability": "view",
      "type": "function"
    },
    {
      "inputs": [
        {
          "internalType": "uint256",
          "name": "tokenId",
          "type": "uint256"
        }
      ],
      "name": "ownerOf",
      "outputs": [
        {
          "internalType": "address",
          "name": "",
          "type": "address"
        }
      ],
      "stateMutability": "view",
      "type": "function"
    },
    {
      "inputs": [],
      "name": "renounceOwnership",
      "outputs": [],
      "stateMutability": "nonpayable",
      "type": "function"
    },
    {
      "inputs": [
        {
          "internalType": "address",
          "name": "from",
          "type": "address"
        },
        {
          "internalType": "address",
          "name": "to",
          "type": "address"
        },
        {
          "internalType": "uint256",
          "name": "tokenId",
          "type": "uint256"
        }
      ],
      "name": "safeTransferFrom",
      "outputs": [],
      "stateMutability": "nonpayable",
      "type": "function"
    },
    {
      "inputs": [
        {
          "internalType": "address",
          "name": "from",
          "type": "address"
        },
        {
          "internalType": "address",
          "name": "to",
          "type": "address"
        },
        {
          "internalType": "uint256",
          "name": "tokenId",
          "type": "uint256"
        },
        {
          "internalType": "bytes",
          "name": "data",
          "type": "bytes"
        }
      ],
      "name": "safeTransferFrom",
      "outputs": [],
      "stateMutability": "nonpayable",
      "type": "function"
    },
    {
      "inputs": [
        {
          "internalType": "address",
          "name": "operator",
          "type": "address"
        },
        {
          "internalType": "bool",
          "name": "approved",
          "type": "bool"
        }
      ],
      "name": "setApprovalForAll",
      "outputs": [],
      "stateMutability": "nonpayable",
      "type": "function"
    },
    {
      "inputs": [
        {
          "internalType": "address",
          "name": "verifier",
          "type": "address"
        },
        {
          "internalType": "bool",
          "name": "allowed",
          "type": "bool"
        }
      ],
      "name": "setVerifier",
      "outputs": [],
      "stateMutability": "nonpayable",
      "type": "function"
    },
    {
      "inputs": [
        {
          "internalType": "bytes4",
          "name": "interfaceId",
          "type": "bytes4"
        }
      ],
      "name": "supportsInterface",
      "outputs": [
        {
          "internalType": "bool",
          "name": "",
          "type": "bool"
        }
      ],
      "stateMutability": "view",
      "type": "function"
    },
    {
      "inputs": [],
      "name": "symbol",
      "outputs": [
        {
          "internalType": "string",
          "name": "",
          "type": "string"
        }
      ],
      "stateMutability": "view",
      "type": "function"
    },
    {
      "inputs": [
        {
          "internalType": "uint256",
          "name": "tokenId",
          "type": "uint256"
        }
      ],
      "name": "tokenURI",
      "outputs": [
        {
          "internalType": "string",
          "name": "",
          "type": "string"
        }
      ],
      "stateMutability": "view",
      "type": "function"
    },
    {
      "inputs": [
        {
          "internalType": "address",
          "name": "from",
          "type": "address"
        },
        {
          "internalType": "address",
          "name": "to",
          "type": "address"
        },
        {
          "internalType": "uint256",
          "name": "tokenId",
          "type": "uint256"
        }
      ],
      "name": "transferFrom",
      "outputs": [],
      "stateMutability": "nonpayable",
      "type": "function"
    },
    {
      "inputs": [
        {
          "internalType": "address",
          "name": "newOwner",
          "type": "address"
        }
      ],
      "name": "transferOwnership",
      "outputs": [],
      "stateMutability": "nonpayable",
      "type": "function"
    },
    {
      "inputs": [
        {
          "internalType": "address",
          "name": "",
          "type": "address"
        }
      ],
      "name": "verifiers",
      "outputs": [
        {
          "internalType": "bool",
          "name": "",
          "type": "bool"
        }
      ],
      "stateMutability": "view",
      "type": "function"
    }
  ],
  "bytecode": "0x6080604052600160085534801562000015575f80fd5b50336040518060400160405280601781526020017f42756467657442616e64687520476f616c20426164676500000000000000000081525060405180604001604052806006815260200165109091d3d05360d21b815250815f90816200007c9190620001bd565b5060016200008b8282620001bd565b5050506001600160a01b038116620000bc57604051631e4fbdf760e01b81525f600482015260240160405180910390fd5b620000c781620000ce565b5062000289565b600780546001600160a01b038381166001600160a01b0319831681179093556040519116919082907f8be0079c531659141344cd1fd0a4f28419497f9722a3daafe3b4186f6b6457e0905f90a35050565b634e487b7160e01b5f52604160045260245ffd5b600181811c908216806200014857607f821691505b6020821081036200016757634e487b7160e01b5f52602260045260245ffd5b50919050565b601f821115620001b857805f5260205f20601f840160051c81016020851015620001945750805b601f840160051c820191505b81811015620001b5575f8155600101620001a0565b50505b505050565b81516001600160401b03811115620001d957620001d96200011f565b620001f181620001ea845462000133565b846200016d565b602080601f83116001811462000227575f84156200020f5750858301515b5f19600386901b1c1916600185901b17855562000281565b5f85815260208120601f198616915b82811015620002575788860151825594840194600190910190840162000236565b50858210156200027557878501515f19600388901b60f8161c191681555b505060018460011b0185555b505050505050565b611c1d80620002975f395ff3fe608060405234801561000f575f80fd5b5060043610610132575f3560e01c8063715018a6116100b4578063a22cb46511610079578063a22cb4651461028b578063ac9b56711461029e578063b88d4fde146102b1578063c87b56dd146102c4578063e985e9c5146102d7578063f2fde38b146102ea575f80fd5b8063715018a61461024257806375794a3c1461024a5780638c0be6e8146102525780638da5cb5b1461027257806395d89b4114610283575f80fd5b806342842e0e116100fa57806342842e0e146101c6578063587c753d146101d95780636352211e146101fa5780636c8244871461020d57806370a082311461022f575f80fd5b806301ffc9a71461013657806306fdde031461015e578063081812fc14610173578063095ea7b31461019e57806323b872dd146101b3575b5f80fd5b610149610144366004611547565b6102fd565b60405190151581526020015b60405180910390f35b61016661030d565b60405161015591906115af565b6101866101813660046115c1565b61039c565b6040516001600160a01b039091168152602001610155565b6101b16101ac3660046115f3565b6103c3565b005b6101b16101c136600461161b565b6103d2565b6101b16101d436600461161b565b610460565b6101ec6101e7366004611699565b61047f565b604051908152602001610155565b6101866102083660046115c1565b61060c565b61014961021b366004611714565b60096020525f908152604090205460ff1681565b6101ec61023d366004611714565b610616565b6101b161065b565b6008546101ec565b61026561026036600461172d565b61066e565b60405161015591906117eb565b6007546001600160a01b0316610186565b610166610988565b6101b161029936600461182e565b610997565b6101b16102ac36600461182e565b6109a2565b6101b16102bf36600461187b565b610a5e565b6101666102d23660046115c1565b610a76565b6101496102e5366004611950565b610a81565b6101b16102f8366004611714565b610aae565b5f61030782610aeb565b92915050565b60605f805461031b90611981565b80601f016020809104026020016040519081016040528092919081815260200182805461034790611981565b80156103925780601f1061036957610100808354040283529160200191610392565b820191905f5260205f20905b81548152906001019060200180831161037557829003601f168201915b5050505050905090565b5f6103a682610b0f565b505f828152600460205260409020546001600160a01b0316610307565b6103ce828233610b47565b5050565b6001600160a01b03821661040057604051633250574960e11b81525f60048201526024015b60405180910390fd5b5f61040c838333610b54565b9050836001600160a01b0316816001600160a01b03161461045a576040516364283d7b60e01b81526001600160a01b03808616600483015260248201849052821660448201526064016103f7565b50505050565b61047a83838360405180602001604052805f815250610a5e565b505050565b6007545f906001600160a01b03163314806104a85750335f9081526009602052604090205460ff165b6104c45760405162461bcd60e51b81526004016103f7906119b9565b6001600160a01b03861661051a5760405162461bcd60e51b815260206004820152601c60248201527f476f616c42616467655342543a207a65726f20726563697069656e740000000060448201526064016103f7565b816105615760405162461bcd60e51b8152602060048201526017602482015276476f616c42616467655342543a20656d7074792055524960481b60448201526064016103f7565b60088054905f610570836119fc565b9190505590506105808682610be3565b6105bf8184848080601f0160208091040260200160405190810160405280939291908181526020018383808284375f92019190915250610bfc92505050565b80866001600160a01b03167f6854c057dc92416510857b3daad5434a4202a4d192cf0f85d496d91974efaea387876040516105fb929190611a20565b60405180910390a395945050505050565b5f61030782610b0f565b5f6001600160a01b038216610640576040516322718ad960e21b81525f60048201526024016103f7565b506001600160a01b03165f9081526003602052604090205490565b610663610c4b565b61066c5f610c78565b565b6007546060906001600160a01b03163314806106985750335f9081526009602052604090205460ff165b6106b45760405162461bcd60e51b81526004016103f7906119b9565b856107015760405162461bcd60e51b815260206004820152601860248201527f476f616c42616467655342543a20656d707479206c697374000000000000000060448201526064016103f7565b60148611156107525760405162461bcd60e51b815260206004820152601e60248201527f476f616c42616467655342543a206d617820323020706572206261746368000060448201526064016103f7565b816107995760405162461bcd60e51b8152602060048201526017602482015276476f616c42616467655342543a20656d7074792055524960481b60448201526064016103f7565b8567ffffffffffffffff8111156107b2576107b2611867565b6040519080825280602002602001820160405280156107db578160200160208202803683370190505b5090505f5b8681101561097d575f8888838181106107fb576107fb611a4e565b90506020020160208101906108109190611714565b6001600160a01b0316036108665760405162461bcd60e51b815260206004820152601c60248201527f476f616c42616467655342543a207a65726f20726563697069656e740000000060448201526064016103f7565b600880545f9182610876836119fc565b9190505590506108ac89898481811061089157610891611a4e565b90506020020160208101906108a69190611714565b82610be3565b6108eb8186868080601f0160208091040260200160405190810160405280939291908181526020018383808284375f92019190915250610bfc92505050565b808383815181106108fe576108fe611a4e565b6020026020010181815250508089898481811061091d5761091d611a4e565b90506020020160208101906109329190611714565b6001600160a01b03167f6854c057dc92416510857b3daad5434a4202a4d192cf0f85d496d91974efaea3898960405161096c929190611a20565b60405180910390a3506001016107e0565b509695505050505050565b60606001805461031b90611981565b6103ce338383610cc9565b6109aa610c4b565b6001600160a01b038216610a005760405162461bcd60e51b815260206004820152601a60248201527f476f616c42616467655342543a207a65726f206164647265737300000000000060448201526064016103f7565b6001600160a01b0382165f81815260096020908152604091829020805460ff191685151590811790915591519182527fba5f7031ad83095931ee4b5138591db2dc3cfc56178367622fa4b05c2efad231910160405180910390a25050565b610a698484846103d2565b61045a3385858585610d90565b606061030782610eb8565b6001600160a01b039182165f90815260056020908152604080832093909416825291909152205460ff1690565b610ab6610c4b565b6001600160a01b038116610adf57604051631e4fbdf760e01b81525f60048201526024016103f7565b610ae881610c78565b50565b5f6001600160e01b03198216632483248360e11b1480610307575061030782610f39565b5f818152600260205260408120546001600160a01b03168061030757604051637e27328960e01b8152600481018490526024016103f7565b61047a8383836001610f88565b5f828152600260205260408120546001600160a01b03168015801590610b8257506001600160a01b03851615155b15610bcf5760405162461bcd60e51b815260206004820152601e60248201527f476f616c42616467655342543a206e6f6e2d7472616e7366657261626c65000060448201526064016103f7565b610bda85858561108c565b95945050505050565b6103ce828260405180602001604052805f81525061117e565b5f828152600660205260409020610c138282611aa6565b506040518281527ff8e1a15aba9398e019f0b49df1a4fde98ee17ae345cb5f6b5e2c27f5033e8ce79060200160405180910390a15050565b6007546001600160a01b0316331461066c5760405163118cdaa760e01b81523360048201526024016103f7565b600780546001600160a01b038381166001600160a01b0319831681179093556040519116919082907f8be0079c531659141344cd1fd0a4f28419497f9722a3daafe3b4186f6b6457e0905f90a35050565b6001600160a01b038316610cf25760405163a9fbf51f60e01b81525f60048201526024016103f7565b6001600160a01b038216610d2457604051630b61174360e31b81526001600160a01b03831660048201526024016103f7565b6001600160a01b038381165f81815260056020908152604080832094871680845294825291829020805460ff191686151590811790915591519182527f17307eab39ab6107e8899845ad3d59bd9653f200f220920489ca2b5937696c31910160405180910390a3505050565b6001600160a01b0383163b15610eb157604051630a85bd0160e11b81526001600160a01b0384169063150b7a0290610dd2908890889087908790600401611b62565b6020604051808303815f875af1925050508015610e0c575060408051601f3d908101601f19168201909252610e0991810190611b9e565b60015b610e73573d808015610e39576040519150601f19603f3d011682016040523d82523d5f602084013e610e3e565b606091505b5080515f03610e6b57604051633250574960e11b81526001600160a01b03851660048201526024016103f7565b805160208201fd5b6001600160e01b03198116630a85bd0160e11b14610eaf57604051633250574960e11b81526001600160a01b03851660048201526024016103f7565b505b5050505050565b6060610ec382610b0f565b505f610ed960408051602081019091525f815290565b90505f610ee584611195565b905081515f03610ef6579392505050565b805115610f28578181604051602001610f10929190611bb9565b60405160208183030381529060405292505050919050565b610f3184611234565b949350505050565b5f6001600160e01b031982166380ac58cd60e01b1480610f6957506001600160e01b03198216635b5e139f60e01b145b8061030757506301ffc9a760e01b6001600160e01b0319831614610307565b8080610f9c57506001600160a01b03821615155b1561105d575f610fab84610b0f565b90506001600160a01b03831615801590610fd75750826001600160a01b0316816001600160a01b031614155b8015610fea5750610fe88184610a81565b155b156110135760405163a9fbf51f60e01b81526001600160a01b03841660048201526024016103f7565b811561105b5783856001600160a01b0316826001600160a01b03167f8c5be1e5ebec7d5bd14f71427d1e84f3dd0314c0f7b2291e5b200ac8c7c3b92560405160405180910390a45b505b50505f90815260046020526040902080546001600160a01b0319166001600160a01b0392909216919091179055565b5f828152600260205260408120546001600160a01b03908116908316156110b8576110b88184866112a5565b6001600160a01b038116156110f2576110d35f855f80610f88565b6001600160a01b0381165f90815260036020526040902080545f190190555b6001600160a01b03851615611120576001600160a01b0385165f908152600360205260409020805460010190555b5f8481526002602052604080822080546001600160a01b0319166001600160a01b0389811691821790925591518793918516917fddf252ad1be2c89b69c2b068fc378daa952ba7f163c4a11628f55a4df523b3ef91a4949350505050565b6111888383611309565b61047a335f858585610d90565b5f8181526006602052604090208054606091906111b190611981565b80601f01602080910402602001604051908101604052809291908181526020018280546111dd90611981565b80156112285780601f106111ff57610100808354040283529160200191611228565b820191905f5260205f20905b81548152906001019060200180831161120b57829003601f168201915b50505050509050919050565b606061123f82610b0f565b505f61125560408051602081019091525f815290565b90505f8151116112735760405180602001604052805f81525061129e565b8061127d8461136a565b60405160200161128e929190611bb9565b6040516020818303038152906040525b9392505050565b6112b08383836113fa565b61047a576001600160a01b0383166112de57604051637e27328960e01b8152600481018290526024016103f7565b60405163177e802f60e01b81526001600160a01b0383166004820152602481018290526044016103f7565b6001600160a01b03821661133257604051633250574960e11b81525f60048201526024016103f7565b5f61133e83835f610b54565b90506001600160a01b0381161561047a576040516339e3563760e11b81525f60048201526024016103f7565b60605f6113768361145b565b60010190505f8167ffffffffffffffff81111561139557611395611867565b6040519080825280601f01601f1916602001820160405280156113bf576020820181803683370190505b5090508181016020015b5f19016f181899199a1a9b1b9c1cb0b131b232b360811b600a86061a8153600a85049450846113c957509392505050565b5f6001600160a01b03831615801590610f315750826001600160a01b0316846001600160a01b0316148061143357506114338484610a81565b80610f315750505f908152600460205260409020546001600160a01b03908116911614919050565b5f8072184f03e93ff9f4daa797ed6e38ed64bf6a1f0160401b83106114995772184f03e93ff9f4daa797ed6e38ed64bf6a1f0160401b830492506040015b6d04ee2d6d415b85acef810000000083106114c5576d04ee2d6d415b85acef8100000000830492506020015b662386f26fc1000083106114e357662386f26fc10000830492506010015b6305f5e10083106114fb576305f5e100830492506008015b612710831061150f57612710830492506004015b60648310611521576064830492506002015b600a83106103075760010192915050565b6001600160e01b031981168114610ae8575f80fd5b5f60208284031215611557575f80fd5b813561129e81611532565b5f5b8381101561157c578181015183820152602001611564565b50505f910152565b5f815180845261159b816020860160208601611562565b601f01601f19169290920160200192915050565b602081525f61129e6020830184611584565b5f602082840312156115d1575f80fd5b5035919050565b80356001600160a01b03811681146115ee575f80fd5b919050565b5f8060408385031215611604575f80fd5b61160d836115d8565b946020939093013593505050565b5f805f6060848603121561162d575f80fd5b611636846115d8565b9250611644602085016115d8565b9150604084013590509250925092565b5f8083601f840112611664575f80fd5b50813567ffffffffffffffff81111561167b575f80fd5b602083019150836020828501011115611692575f80fd5b9250929050565b5f805f805f606086880312156116ad575f80fd5b6116b6866115d8565b9450602086013567ffffffffffffffff808211156116d2575f80fd5b6116de89838a01611654565b909650945060408801359150808211156116f6575f80fd5b5061170388828901611654565b969995985093965092949392505050565b5f60208284031215611724575f80fd5b61129e826115d8565b5f805f805f8060608789031215611742575f80fd5b863567ffffffffffffffff80821115611759575f80fd5b818901915089601f83011261176c575f80fd5b81358181111561177a575f80fd5b8a60208260051b850101111561178e575f80fd5b6020928301985096509088013590808211156117a8575f80fd5b6117b48a838b01611654565b909650945060408901359150808211156117cc575f80fd5b506117d989828a01611654565b979a9699509497509295939492505050565b602080825282518282018190525f9190848201906040850190845b8181101561182257835183529284019291840191600101611806565b50909695505050505050565b5f806040838503121561183f575f80fd5b611848836115d8565b91506020830135801515811461185c575f80fd5b809150509250929050565b634e487b7160e01b5f52604160045260245ffd5b5f805f806080858703121561188e575f80fd5b611897856115d8565b93506118a5602086016115d8565b925060408501359150606085013567ffffffffffffffff808211156118c8575f80fd5b818701915087601f8301126118db575f80fd5b8135818111156118ed576118ed611867565b604051601f8201601f19908116603f0116810190838211818310171561191557611915611867565b816040528281528a602084870101111561192d575f80fd5b826020860160208301375f60208483010152809550505050505092959194509250565b5f8060408385031215611961575f80fd5b61196a836115d8565b9150611978602084016115d8565b90509250929050565b600181811c9082168061199557607f821691505b6020821081036119b357634e487b7160e01b5f52602260045260245ffd5b50919050565b60208082526023908201527f476f616c42616467655342543a206e6f74206f776e6572206f7220766572696660408201526234b2b960e91b606082015260800190565b5f60018201611a1957634e487b7160e01b5f52601160045260245ffd5b5060010190565b60208152816020820152818360408301375f818301604090810191909152601f909201601f19160101919050565b634e487b7160e01b5f52603260045260245ffd5b601f82111561047a57805f5260205f20601f840160051c81016020851015611a875750805b601f840160051c820191505b81811015610eb1575f8155600101611a93565b815167ffffffffffffffff811115611ac057611ac0611867565b611ad481611ace8454611981565b84611a62565b602080601f831160018114611b07575f8415611af05750858301515b5f19600386901b1c1916600185901b178555610eaf565b5f85815260208120601f198616915b82811015611b3557888601518255948401946001909101908401611b16565b5085821015611b5257878501515f19600388901b60f8161c191681555b5050505050600190811b01905550565b6001600160a01b03858116825284166020820152604081018390526080606082018190525f90611b9490830184611584565b9695505050505050565b5f60208284031215611bae575f80fd5b815161129e81611532565b5f8351611bca818460208801611562565b835190830190611bde818360208801611562565b0194935050505056fea2646970667358221220c6a3d51bb2c18b5397b7e06ff10e69c8abb96265ce283d7caf37a188f9bcdae664736f6c63430008180033",
  "linkReferences": {},
  "deployedLinkReferences": {}
}